{
  "contractName": "Medifi",
  "abi": [
    {
      "inputs": [],
      "stateMutability": "nonpayable",
      "type": "constructor"
    },
    {
      "inputs": [],
      "name": "Total_records",
      "outputs": [
        {
          "internalType": "uint256",
          "name": "",
          "type": "uint256"
        }
      ],
      "stateMutability": "view",
      "type": "function",
      "constant": true
    },
    {
      "inputs": [],
      "name": "name",
      "outputs": [
        {
          "internalType": "string",
          "name": "",
          "type": "string"
        }
      ],
      "stateMutability": "view",
      "type": "function",
      "constant": true
    },
    {
      "inputs": [
        {
          "internalType": "uint256",
          "name": "",
          "type": "uint256"
        }
      ],
      "name": "records",
      "outputs": [
        {
          "internalType": "uint256",
          "name": "pat_id",
          "type": "uint256"
        },
        {
          "internalType": "string",
          "name": "cid",
          "type": "string"
        },
        {
          "internalType": "string",
          "name": "name",
          "type": "string"
        }
      ],
      "stateMutability": "view",
      "type": "function",
      "constant": true
    },
    {
      "inputs": [
        {
          "internalType": "string",
          "name": "_cid",
          "type": "string"
        },
        {
          "internalType": "string",
          "name": "pat_id",
          "type": "string"
        }
      ],
      "name": "UploadRecord",
      "outputs": [],
      "stateMutability": "nonpayable",
      "type": "function"
    },
    {
      "inputs": [
        {
          "internalType": "uint256",
          "name": "x",
          "type": "uint256"
        }
      ],
      "name": "get",
      "outputs": [
        {
          "internalType": "string",
          "name": "",
          "type": "string"
        }
      ],
      "stateMutability": "view",
      "type": "function",
      "constant": true
    }
  ],
  "bytecode": "0x6080604052600080556040518060400160405280600681526020017f4d6564696669000000000000000000000000000000000000000000000000000081525060019080519060200190610053929190610066565b5034801561006057600080fd5b5061016a565b82805461007290610138565b90600052602060002090601f01602090048101928261009457600085556100db565b82601f106100ad57805160ff19168380011785556100db565b828001600101855582156100db579182015b828111156100da5782518255916020019190600101906100bf565b5b5090506100e891906100ec565b5090565b5b808211156101055760008160009055506001016100ed565b5090565b7f4e487b7100000000000000000000000000000000000000000000000000000000600052602260045260246000fd5b6000600282049050600182168061015057607f821691505b6020821081141561016457610163610109565b5b50919050565b6109ff806101796000396000f3fe608060405234801561001057600080fd5b50600436106100575760003560e01c806306fdde031461005c5780631eb906f91461007a57806323ebc3db1461009657806334461067146100b45780639507d39a146100e6575b600080fd5b610064610116565b604051610071919061063b565b60405180910390f35b610094600480360381019061008f91906107a6565b6101a4565b005b61009e610317565b6040516100ab9190610837565b60405180910390f35b6100ce60048036038101906100c9919061087e565b61031d565b6040516100dd939291906108ab565b60405180910390f35b61010060048036038101906100fb919061087e565b610457565b60405161010d919061063b565b60405180910390f35b600180546101239061091f565b80601f016020809104026020016040519081016040528092919081815260200182805461014f9061091f565b801561019c5780601f106101715761010080835404028352916020019161019c565b820191906000526020600020905b81548152906001019060200180831161017f57829003601f168201915b505050505081565b60008251116101b257600080fd5b60008151116101c057600080fd5b600073ffffffffffffffffffffffffffffffffffffffff163373ffffffffffffffffffffffffffffffffffffffff1614156101fa57600080fd5b60008081548092919061020c90610980565b919050555060405180606001604052806000548152602001838152602001600180546102379061091f565b80601f01602080910402602001604051908101604052809291908181526020018280546102639061091f565b80156102b05780601f10610285576101008083540402835291602001916102b0565b820191906000526020600020905b81548152906001019060200180831161029357829003601f168201915b505050505081525060026000805481526020019081526020016000206000820151816000015560208201518160010190805190602001906102f29291906104ff565b50604082015181600201908051906020019061030f9291906104ff565b509050505050565b60005481565b60026020528060005260406000206000915090508060000154908060010180546103469061091f565b80601f01602080910402602001604051908101604052809291908181526020018280546103729061091f565b80156103bf5780601f10610394576101008083540402835291602001916103bf565b820191906000526020600020905b8154815290600101906020018083116103a257829003601f168201915b5050505050908060020180546103d49061091f565b80601f01602080910402602001604051908101604052809291908181526020018280546104009061091f565b801561044d5780601f106104225761010080835404028352916020019161044d565b820191906000526020600020905b81548152906001019060200180831161043057829003601f168201915b5050505050905083565b606060026000838152602001908152602001600020600101805461047a9061091f565b80601f01602080910402602001604051908101604052809291908181526020018280546104a69061091f565b80156104f35780601f106104c8576101008083540402835291602001916104f3565b820191906000526020600020905b8154815290600101906020018083116104d657829003601f168201915b50505050509050919050565b82805461050b9061091f565b90600052602060002090601f01602090048101928261052d5760008555610574565b82601f1061054657805160ff1916838001178555610574565b82800160010185558215610574579182015b82811115610573578251825591602001919060010190610558565b5b5090506105819190610585565b5090565b5b8082111561059e576000816000905550600101610586565b5090565b600081519050919050565b600082825260208201905092915050565b60005b838110156105dc5780820151818401526020810190506105c1565b838111156105eb576000848401525b50505050565b6000601f19601f8301169050919050565b600061060d826105a2565b61061781856105ad565b93506106278185602086016105be565b610630816105f1565b840191505092915050565b600060208201905081810360008301526106558184610602565b905092915050565b6000604051905090565b600080fd5b600080fd5b600080fd5b600080fd5b7f4e487b7100000000000000000000000000000000000000000000000000000000600052604160045260246000fd5b6106b3826105f1565b810181811067ffffffffffffffff821117156106d2576106d161067b565b5b80604052505050565b60006106e561065d565b90506106f182826106aa565b919050565b600067ffffffffffffffff8211156107115761071061067b565b5b61071a826105f1565b9050602081019050919050565b82818337600083830152505050565b6000610749610744846106f6565b6106db565b90508281526020810184848401111561076557610764610676565b5b610770848285610727565b509392505050565b600082601f83011261078d5761078c610671565b5b813561079d848260208601610736565b91505092915050565b600080604083850312156107bd576107bc610667565b5b600083013567ffffffffffffffff8111156107db576107da61066c565b5b6107e785828601610778565b925050602083013567ffffffffffffffff8111156108085761080761066c565b5b61081485828601610778565b9150509250929050565b6000819050919050565b6108318161081e565b82525050565b600060208201905061084c6000830184610828565b92915050565b61085b8161081e565b811461086657600080fd5b50565b60008135905061087881610852565b92915050565b60006020828403121561089457610893610667565b5b60006108a284828501610869565b91505092915050565b60006060820190506108c06000830186610828565b81810360208301526108d28185610602565b905081810360408301526108e68184610602565b9050949350505050565b7f4e487b7100000000000000000000000000000000000000000000000000000000600052602260045260246000fd5b6000600282049050600182168061093757607f821691505b6020821081141561094b5761094a6108f0565b5b50919050565b7f4e487b7100000000000000000000000000000000000000000000000000000000600052601160045260246000fd5b600061098b8261081e565b91507fffffffffffffffffffffffffffffffffffffffffffffffffffffffffffffffff8214156109be576109bd610951565b5b60018201905091905056fea2646970667358221220cada05a526a3f5be2778857035edc742acb31a88ec8fc6af8d1eaffa9b59ab1664736f6c634300080c0033",
  "immutableReferences": {},
  "source": "pragma solidity ^0.8.12; // *important* make sure your version of solidity is 0.8.12 else change respective pragma\n\ncontract Medifi { // contract\n\tuint public Total_records = 0;\n\tstring public name = \"Medifi\";\n\tmapping(uint => Record) public records; // mapping the class\n\n\nstruct Record{ // the class/ solidity struct\n\tuint pat_id; // patient id\n\tstring cid; //record hash\n\tstring name; // patient name\n}\n\nconstructor() public {\n\t\n}\n\nfunction UploadRecord(string memory _cid, string memory pat_id)public{\n\n\trequire(bytes(_cid).length > 0); // check if there is a hash associated with a record\n\trequire(bytes(pat_id).length>0); // check for the patient id\n\trequire(msg.sender != address(0)); // make sure uploader is using an actual adress\n\tTotal_records++;\n\n\trecords [Total_records] = Record(Total_records,_cid,name);\n}\nfunction get(uint x) public view returns (string memory){\n\treturn records[x].cid;\n}\n}",
  "sourcePath": "/home/diplo/CodeWisely/Parsec/contracts/Medifi.sol",
  "compiler": {
    "name": "solc",
    "version": "0.8.12+commit.f00d7308.Emscripten.clang"
  },
  "schemaVersion": "3.4.5",
  "updatedAt": "2022-03-04T18:05:08.383Z",
  "networkType": "ethereum",
  "devdoc": {
    "kind": "dev",
    "methods": {},
    "version": 1
  },
  "userdoc": {
    "kind": "user",
    "methods": {},
    "version": 1
  }
}